:02000000512885
:100008007E14803120007F08F200F301911E4C28F5
:1000180023001D1911289D1C18281D121908F0000D
:100028007008F3001D161C281908F0007008F3006A
:1000380024307306031D3428F8012000E6017808EF
:100048008C3EF000F1012030F13D70088600710807
:100058008700243081000130F0007008F8074C2830
:10006800780803194C28F901F90A78088C3EF00041
:10007800F1012030F13D700886007108870073088F
:1000880081000130F0007008F8072000E601E60A58
:1000980072082000FF007E10090052286B3084008F
:1000A800843085001200E8001200E9001200EA001E
:1000B8001200EB001200EC001200ED008C308400FE
:1000C800203085006430FE000030FF004824F8012D
:1000D800F9015C308400003085000C30FE000030EF
:1000E800FF0048242100A001A101A201A301A4014D
:1000F800A5017E102000E02A00302000B5007A30EB
:10010800B6004430B7004808A5004908A6004A08C8
:10011800A7000030A8008030A9003F30AA0038228C
:1001280020002508B8002608B9002708BA0085214C
:1001380020003508D1003608D2003708D300003037
:10014800A500A030A6004130A7005108A800520819
:10015800A9005308AA00382220002508CE00260846
:10016800CF002708D0000030B5007A30B600443000
:10017800B7004508A5004608A6004708A7000030B4
:10018800A8008030A9003F30AA00382220002508A6
:10019800B8002608B9002708BA00852120003508CC
:1001A800D1003608D2003708D3000030A500A030AF
:1001B800A6004130A7005108A8005208A90053081A
:1001C800AA00382220002508D4002608D5002708D0
:1001D800D6004B084C04031DFC285F08013ECD00E7
:1001E8004D08DF00610803190629E201E20A062921
:1001F8006108013ECD004D08E1005F08031906299A
:10020800E001E00A5408AC005508AD005608AE00FD
:100218006108182420002508AF002608B000270828
:10022800B100DC2303181B292000E101DC012000B8
:100238005408AC005508AD005608AE005F081824F5
:1002480020002508AF002608B0002708B100DC23ED
:10025800031831292000DF01DD0120006203031D9E
:100268003B296108CD004D08DC00E101E201600393
:10027800031D44295F08CD004D08DD00DF01E001C2
:100288000130CD004D08E7070A306702031C08005B
:100298005D085C07CD004D08DE005E0818242000CC
:1002A8002508AC002608AD002708AE004E08AF00B0
:1002B8004F08B0005008B100DC23031C7A29200045
:1002C8005408AC005508AD005608AE005E08182466
:1002D80020002508AF002608B0002708B100DC235D
:1002E800031C7A292530602430307D29253060248C
:1002F800313060240D3060240A3060242000E7018A
:10030800080020003508BB003608BC003708BD00CF
:1003180003103C0D3D0DBE003E08BF003F08031D05
:100328009C290030B5000030B6000030B700080046
:100338003808BB003908BC003A08BD0003103C0D62
:100348003D0DBE003E08C4004408031DB22900301C
:10035800B5000030B6000030B700080044087B3E06
:10036800BB003B08BF073508BB003608BC00370890
:10037800BD001030BD36BC0CBB0C890BBE293B0838
:10038800BE003E08C4003808BB003908BC003A0863
:10039800BD001030BD36BC0CBB0C890BCE293B0808
:1003A800BE003E08C4068030BB003B08C405B61733
:1003B800B917FF30B805FF30B9050030BA0500306D
:1003C800C0000030C1000030C2000730BB003B084D
:1003D800C300351CF5293808C0073908C13D3A085B
:1003E800C23D0130B736B60CB50C890BF629013081
:1003F800B835B90DBA0D890BFC290130C302031DAC
:10040800ED290930BB003B08C300351C112A380808
:10041800C0073908C13D3A08C23D0130B736B60CAD
:10042800B50C890B122A0130C236C10CC00C890BDD
:10043800182A0130C302031D092A4008A0004108F8
:10044800A1004208A2003F08BB003B08A3004408E3
:10045800BC003C08A400772320002008B500210830
:10046800B6002208B700080020002808AB002908B9
:10047800AC002A08AD0003102C0D2D0DAE002E087F
:10048800B3003308031D4F2A0030A5000030A60032
:100498000030A70008002508AB002608AC00270894
:1004A800AD0003102C0D2D0DAE002E08B40034083D
:1004B800031D652A0030A5000030A6000030A70003
:1004C80008000030B0000030B1000030B2008930C0
:1004D8003407AB002B08B3022808AB002908AC008E
:1004E8002A08AD001030AD36AC0CAB0C890B772A5E
:1004F8002B08AE002E08B4002508AB002608AC0077
:100508002708AD001030AD36AC0CAB0C890B872A30
:100518002B08AE002E08B4068030AB002B08B405BB
:10052800A917FF30A805FF30A9050030AA05A617AE
:10053800FF30A505FF30A6050030A7051830AB0031
:100548002B08AF000130B035B10DB20D890BA72AC9
:1005580027082A02031DB62A26082902031DB62ADF
:1005680025082802031CBF2A2508A8022608A93B3B
:100578002708AA3B30140130A835A90DAA0D890B0C
:10058800C02A0130AF02031DA62A3008A000310896
:10059800A1003208A2003308AB002B08A3003408DE
:1005A800AC002C08A400772320002008A50021080F
:1005B800A6002208A70008002000DB010330D900AC
:1005C8000830D8007830D700D70BE82AD80BE82AAB
:1005D800D90BE82A5424322420006508031D042B73
:1005E8001530D9004B30D800D130D700D70BFA2AB4
:1005F800D80BFA2AD90BFA2A00002000E501E50AEF
:1006080020006603031D512BDB0164305B020318D5
:10061800322B5B088C3E860087012030873D01081D
:10062800602420005B08013ED70000300318013029
:10063800D8008C30D9002030DA00570859078600D6
:1006480058085A3D870001080319322B0130D7009A
:100658005708DB0764305B02031C0D2BDB01643099
:100668005B020318462B5B088C3E8600870120300E
:10067800873D81010130D7005708DB0764305B02F2
:10068800031C372BF801E6013F30D8005530D7005E
:10069800D70B4C2BD80B4C2B5B2B68302000D80089
:1006A800E430D700D70B562BD80B562B0000200070
:1006B8000C1A612BE301E401652B0130E3000030E3
:1006C800E4006B08C5006C08C6006D08C700680820
:1006D800C8006908C9006A08CA006408CC00630831
:1006E800CB008020042B200023080319802B22082C
:1006F80021042004031D912B0030A0000030A1002C
:100708000030A20008000130F4007408A30701308B
:10071800A236A10CA00C890B8C2BFE3022050319E4
:10072800AA2B872B0130F4007408A3070130A00717
:10073800003003180130A107003003180130A20768
:100748000130A236A10CA00C890BA52BFF30220585
:100758000319B72B962B0130A3020130A035A10D48
:10076800A20D890BB22BA11BBD2B0230230203184B
:10077800AF2B2318C52BFF30A0057F30A105FF3014
:10078800A2050310A30C2308F400F501F6011030AC
:10079800F435F50DF60D890BCC2B7408A0047508FB
:1007A800A1047608A204240803190800A217080067
:1007B8002000AE1FF32B2C09B2002D09B3002E091F
:1007C800B400B20A0319B30A0319B40A0030320795
:1007D800AC000030333DAD008030343DAE00B11F79
:1007E800092C2F09B2003009B3003109B400B20A4C
:1007F8000319B30A0319B40A00303207AF000030F6
:10080800333DB0008030343DB1008030AE068030DA
:10081800B10631082E02031D080030082D02031D01
:1008280008002F082C020800F70077082000A8000D
:10083800A901AA012808A0002908A1002A08A200E5
:100848008E30AB002B08A300A401772320002008DA
:10085800A5002108A6002208A700080022001D11F3
:100868009D1721008C160C1023009F151E150130B2
:100878009C00A0309B009E161D169D171E1221007D
:1008880091168B170B1708006400800101310130A5
:10089800FE020030FF3B7F087E0403190034492C18
:1008A80078302100990023008C01343022008C001C
:1008B800103021008C000800F40023009D1F080060
:1008C8002000111E642C740823009A0008000034CC
:0A08D800C0343F349A3419343F3421
:020000040001F9
:04000E00E4F9FFDF33
:00000001FF
