:02000000512885
:100008007E14803120007F08F200F301911E4C28F5
:1000180023001D1911289D1C18281D121908F0000D
:100028007008F3001D161C281908F0007008F3006A
:1000380024307306031D3428F8012000E6017808EF
:100048008C3EF000F1012030F13D70088600710807
:100058008700243081000130F0007008F8074C2830
:10006800780803194C28F901F90A78088C3EF00041
:10007800F1012030F13D700886007108870073088F
:1000880081000130F0007008F8072000E601E60A58
:1000980072082000FF007E10090052286430840096
:1000A800843085001200E8001200E9001200EA001E
:1000B8001200EB001200EC001200ED008C308400FE
:1000C800203085006430FE000030FF004124F80134
:1000D800F9015C308400003085000C30FE000030EF
:1000E800FF0041242100A001A101A201A301A40154
:1000F800A5017E102000DC2A00302000B5007A30EF
:10010800B6004430B7004808A5004908A6004A08C8
:10011800A7000030A8008030A9003F30AA00342290
:1001280020002508B8002608B9002708BA00812150
:1001380020003508D1003608D2003708D300003037
:10014800A500A030A6004130A7005108A800520819
:10015800A9005308AA00342220002508CE0026084A
:10016800CF002708D0000030B5007A30B600443000
:10017800B7004508A5004608A6004708A7000030B4
:10018800A8008030A9003F30AA00342220002508AA
:10019800B8002608B9002708BA00812120003508D0
:1001A800D1003608D2003708D3000030A500A030AF
:1001B800A6004130A7005108A8005208A90053081A
:1001C800AA00342220002508D4002608D5002708D4
:1001D800D6004B084C04031DFC285F08013ECD00E7
:1001E8004D08DF00610803190629E201E20A062921
:1001F8006108013ECD004D08E1005F08031906299A
:10020800E001E00A5408AC005508AD005608AE00FD
:100218006108142420002508AF002608B00027082C
:10022800B100D82303181B292000E101DC012000BC
:100238005408AC005508AD005608AE005F081424F9
:1002480020002508AF002608B0002708B100D823F1
:10025800031831292000DF01DD0120006203031D9E
:100268003B296108CD004D08DC00E101E201600393
:10027800031D44295F08CD004D08DD00DF01E001C2
:100288000130CD004D08E7070A306702031C08005B
:100298005D085C07CD004D08DE005E0814242000D0
:1002A8002508AC002608AD002708AE004E08AF00B0
:1002B8004F08B0005008B100D823031C7A29200049
:1002C8005408AC005508AD005608AE005E0814246A
:1002D80020002508AF002608B0002708B100D82361
:1002E800031C7A292530592430307D29253059249A
:1002F800313059242000E701080020003508BB00F0
:100308003608BC003708BD0003103C0D3D0DBE008B
:100318003E08BF003F08031D98290030B500003093
:10032800B6000030B70008003808BB003908BC0028
:100338003A08BD0003103C0D3D0DBE003E08C40048
:100348004408031DAE290030B5000030B600003067
:10035800B700080044087B3EBB003B08BF073508D0
:10036800BB003608BC003708BD001030BD36BC0CD9
:10037800BB0C890BBA293B08BE003E08C4003808EC
:10038800BB003908BC003A08BD001030BD36BC0CB3
:10039800BB0C890BCA293B08BE003E08C406803046
:1003A800BB003B08C405B617B917FF30B805FF30C6
:1003B800B9050030BA050030C0000030C100003077
:1003C800C2000730BB003B08C300351CF1293808C0
:1003D800C0073908C13D3A08C23D0130B736B60CEE
:1003E800B50C890BF2290130B835B90DBA0D890B56
:1003F800F8290130C302031DE9290930BB003B0875
:10040800C300351C0D2A3808C0073908C13D3A0811
:10041800C23D0130B736B60CB50C890B0E2A013037
:10042800C236C10CC00C890B142A0130C302031D4B
:10043800052A4008A0004108A1004208A2003F0880
:10044800BB003B08A3004408BC003C08A40073237D
:1004580020002008B5002108B6002208B7000800CF
:1004680020002808AB002908AC002A08AD000310BA
:100478002C0D2D0DAE002E08B3003308031D4B2A9A
:100488000030A5000030A6000030A70008002508AD
:10049800AB002608AC002708AD0003102C0D2D0D6D
:1004A800AE002E08B4003408031D612A0030A500F0
:1004B8000030A6000030A70008000030B00000306F
:1004C800B1000030B20089303407AB002B08B3020A
:1004D8002808AB002908AC002A08AD001030AD365A
:1004E800AC0CAB0C890B732A2B08AE002E08B40099
:1004F8002508AB002608AC002708AD001030AD3643
:10050800AC0CAB0C890B832A2B08AE002E08B40662
:100518008030AB002B08B405A917FF30A805FF30C1
:10052800A9050030AA05A617FF30A505FF30A605C6
:100538000030A7051830AB002B08AF000130B035EC
:10054800B10DB20D890BA32A27082A02031DB22A6E
:1005580026082902031DB22A25082802031CBB2AE3
:100568002508A8022608A93B2708AA3B3014013011
:10057800A835A90DAA0D890BBC2A0130AF02031DAD
:10058800A22A3008A0003108A1003208A2003308CE
:10059800AB002B08A3003408AC002C08A40073237C
:1005A80020002008A5002108A6002208A7000800AE
:1005B8002000DB010330D9000830D8007830D7009C
:1005C800D70BE42AD80BE42AD90BE42A4D242E248D
:1005D80020006508031D002B1530D9004B30D800CA
:1005E800D130D700D70BF62AD80BF62AD90BF62A22
:1005F80000002000E501E50A20006603031D4D2BDD
:10060800DB0164305B0203182E2B5B088C3E8600EE
:1006180087012030873D0108592420005B08013EEE
:10062800D700003003180130D8008C30D9002030B2
:10063800DA0057085907860058085A3D870001080C
:1006480003192E2B0130D7005708DB0764305B02F3
:10065800031C092BDB0164305B020318422B5B0887
:100668008C3E860087012030873D81010130D7000C
:100678005708DB0764305B02031C332BF801E601E3
:100688003F30D8005530D700D70B482BD80B482B14
:10069800572B68302000D800E430D700D70B522BF6
:1006A800D80B522B000020000C1A5D2BE301E4014B
:1006B800612B0130E3000030E4006B08C5006C08D2
:1006C800C6006D08C7006808C8006908C9006A083C
:1006D800CA006408CC006308CB008020002B2000EF
:1006E800230803197C2B220821042004031D8D2BC9
:1006F8000030A0000030A1000030A2000800013046
:10070800F4007408A3070130A236A10CA00C890BD1
:10071800882BFE3022050319A62B832B0130F40009
:100728007408A3070130A007003003180130A1079F
:10073800003003180130A2070130A236A10CA00C2A
:10074800890BA12BFF3022050319B32B922B013003
:10075800A3020130A035A10DA20D890BAE2BA11B60
:10076800B92B023023020318AB2B2318C12BFF30FF
:10077800A0057F30A105FF30A2050310A30C2308B4
:10078800F400F501F6011030F435F50DF60D890B7E
:10079800C82B7408A0047508A1047608A2042408CC
:1007A80003190800A21708002000AE1FEF2B2C0920
:1007B800B2002D09B3002E09B400B20A0319B30A16
:1007C8000319B40A00303207AC000030333DAD00E5
:1007D8008030343DAE00B11F052C2F09B20030091E
:1007E800B3003109B400B20A0319B30A0319B40AF1
:1007F80000303207AF000030333DB0008030343D68
:10080800B1008030AE068030B10631082E02031DDB
:10081800080030082D02031D08002F082C020800CC
:10082800F70077082000A800A901AA012808A0005D
:100838002908A1002A08A2008E30AB002B08A300CB
:10084800A401732320002008A5002108A60022087F
:10085800A700080021008C140C1023009F151E15FA
:1008680001309C00A0309B009E161D169D171E127D
:10087800210091168B170B170800640080010131C5
:100888000130FE020030FF3B7F087E04031900346C
:10089800422C78302100990023008C01343022004A
:1008A8008C00103021008C000800F40023009D1FEC
:1008B80008002000111E5D2C740823009A0008000F
:0C08C8000034C0343F349A3419343F34FB
:020000040001F9
:04000E00E4F9FFDF33
:00000001FF
